:0300000002000EED
:0C000E00787FE4F6D8FD758118020055DB
:09025F00011700010B010118FE5A
:080269007F6C7E91DEFEDFFCDC
:01027100226A
:02024400AD0704
:0D024600E4FCECC39D50061202690C80F52B
:010253002288
:0A025400A811EF08800123D8FDFF78
:01025E00227D
:10013800C3EF9401EE6480948050047E007F01D365
:10014800EF9404EE6480948040047E007F04EE7097
:100158001EEF24FE600E14600F1460102403700F4D
:100168007514EE227514DD227514BB2275147722DE
:1001C5000509E50970020508D39404E508648094DF
:1001D500804006750800750901AF09AE08020138AF
:1000EC00C3EF9401EE6480948050047E007F01D3B2
:1000FC00EF9404EE6480948040047E007F04EE70E4
:10010C002AEF24FE60111460151460192403701B6F
:10011C00750D8875908822750D4475904422750D67
:0C012C002275902222750D117590112291
:1001E5000516E51670020515D39404E5156480948B
:1001F500804006751500751601AF16AE150200ECA8
:1001A400EE701DEF14600E1460102402701275803E
:1001B400FFE4F59022E4F58080037580FF7590FFDD
:0101C4002218
:100225000510E5107002050FD39402E50F64809464
:0F023500804005E4F50FF510AF10AE0F0201A4E5
:10009A007D067C00C3EE6480948050047E007F0657
:1000AA00D3EF9DEC6480F8EE6480984003E4FEFF91
:1000BA00EE702EEF14601514601624FE601614609C
:1000CA001514601024067019E4F511227511012225
:1000DA007511FF22800475140E227F037E00120020
:0100EA00EC29
:0100EB0022F2
:010287002254
:07027B00758C4B758AFE2211
:0902720075890112027BD28C2275
:05028200D2AFD2A92259
:03000B0002017877
:10017800C0E0C0D012027B050CE50C641470186353
:100188000BFF85170A0517F50CD3E51794647480DF
:0C01980094804003751700D0D0D0E032F6
:10020500E4F580F590F50E7F01FE120138E4F50F57
:10021500F510FFFE1201A412009A12027202028268
:080003001202058514A080FB28
:10001A00020003E493A3F8E493A34003F68001F2F9
:10002A0008DFF48029E493A3F85407240CC8C333E7
:10003A00C4540F4420C8834004F456800146F6DFB6
:10004A00E4800B010204081020408090025FE47EE5
:10005A00019360BCA3FF543F30E509541FFEE493AB
:10006A00A360010ECF54C025E060A840B8E493A372
:10007A00FAE493A3F8E493A3C8C582C8CAC583CA9D
:10008A00F0A3C8C582C8CAC583CADFE9DEE780BE55
:010268000095
:00000001FF
