:030000000206678E
:0C066700787FE4F6D8FD75813A0206AEFB
:1007760000010002000300040008000C0010000F36
:10078600000E000D00090005000100110012001303
:1007960000140018001C0020001F001E001D001978
:1007A6000015001100210022002300240028002C3F
:1007B6000030002F002E002D0029002500210031D9
:1007C6000032003300340038003C0040003F003E59
:0807D600003D0039003500313F
:1009BF000217000C42000400004200020034420003
:1009CF00000001022C0000022E0000023100000284
:1009DF00080000022A0000012900010F010130FE6A
:0B0AB9000000007F0B7EBEDEFEDFFCB5
:010AC400220F
:0A0A9F00FDE43524FC120398AF1AA1
:020AA900AD0797
:0D0AAB00E4FCECC39D5006120AB90C80F566
:010AB800221B
:02095100A907F4
:10095300E4FFEFC3995030E4FEEED39478748094AF
:10096300804021E4FDEDC39478748094805012E4B8
:10097300FCECC394787480948050030C80F30D8056
:07098300E40E80D50F80CBCC
:01098A00224A
:0A0AC500A816EF08800123D8FDFFFA
:010ACF002204
:1008D200C3EF9401EE6480948050047E007F01D3C4
:1008E200EF9404EE6480948040047E007F04EE70F6
:1008F2001EEF24FE600E14600F1460102403700FAC
:100902007521EE227521DD227521BB227521772208
:100A4100050BE50B7002050AD39404E50A64809452
:100A5100804006750A00750B01AF0BAE0A0208D281
:10088600C3EF9401EE6480948050047E007F01D310
:10089600EF9404EE6480948040047E007F04EE7042
:1008A6002AEF24FE60111460151460192403701BCE
:1008B60075128875908822751244759044227512B7
:0C08C600227590222275121175901122EB
:100A61000527E52770020526D39404E526648094C2
:100A7100804006752600752701AF27AE260208863D
:100A2000EE701DEF14600E146010240270127580B9
:100A3000FFE4F59022E4F58080037580FF7590FF58
:010A40002293
:1009F0000515E51570020514C3E514648094805054
:100A000006751400751502D3E5159402E51464808B
:100A100094804005E4F514F515AF15AE14020A20D4
:100834007D067C00C3EE648094805003E4FEFFD305
:10084400EF9DEC6480F8EE6480984004AE04AF053C
:10085400EE702EEF14601514601624FE60161460FA
:100864001514601024067019E4F516227516012279
:100874007516FF22800475210E227F037E00120864
:0108840086ED
:010885002250
:01000A0022D3
:07000300758C4B758AFE228B
:090AD000758901120003D28C2289
:050AD900D2AFD2A922FA
:03000B000207DE0B
:1007DE00C0E0C0F0C0D01200030510E51075F01493
:1007EE0084E5F0701E630FFF85290C0529050EE5C3
:1007FE000E7002050DD3E52994C8748094804003D1
:10080E00752900D3E51094D274809480400375103E
:10081E0000D3E529943C748094804003752900D060
:06082E00D0D0F0D0E03252
:10091200752400752501752200752301E4F580F523
:100922009075B001751101F50DF50EF519F51AF571
:100932001B751C40F5137F01FE1208D2E4F514F575
:0F09420015FFFE120A20120834120AD0020AD939
:04039400AF23AE22C3
:10039800AB05AA048F828E83C3E5829401E583644A
:1003A8008094805003900001D3E5829403E5836430
:1003B8008094804003900003C3EB9401EA64809426
:1003C800805003E4FAFBD3EB9440EA6480948040C5
:1003D800047A007B40D3EB9400EA64809480400E5A
:1003E800D3EB9408EA64809480500375A0FED3EBA5
:1003F8009408EA64809480400ED3EB9410EA6480F9
:100408009480500375A0EFD3EB9410EA6480948035
:10041800400ED3EB9418EA64809480500375A0FDD5
:10042800D3EB9418EA64809480400ED3EB9420EACE
:1004380064809480500375A0DFD3EB9420EA648035
:100448009480400ED3EB9428EA648094805003751E
:10045800A0FBD3EB9428EA64809480400ED3EB94FD
:1004680030EA64809480500375A0BFD3EB9430EADF
:1004780064809480400ED3EB9438EA648094805072
:100488000375A0F7D3EB9438EA64809480400ED3C8
:10049800EB9440EA64809480500375A07F7C007DD3
:1004A80010AF03AE021205DCAA04AB05752801AE35
:1004B80083AF82EE704CEF24FE601914602824028A
:1004C8007040AF28EB14F8EF08800123D8FDF580C1
:1004D800E4F59022E4F580AF28EB14F8EF088001EA
:1004E80023D8FDF59022AF28EB14FEF8EF08800121
:1004F80023D8FDF580AF28A806EF08800123D8FD92
:02050800F5906C
:01050A0022CE
:1006F300051AE51A70020519D39440E5196480942C
:10070300804005E4F519F51AC3E519648094805017
:1007130006751900751A40E51C151C7002151BC3DC
:10072300E519648094805006751900751A40D3E565
:100733001A9440E519648094804005E4F519F51A8C
:100743000525E52570020524D39440E524648094AF
:1007530080401F7524007525010523E523700205DC
:1007630022D39403E52264809480400675220075A9
:030773002301223D
:100A8100AF0EAE0D120017D3E50E9518E517648071
:0E0A9100F8E50D6480984005E4F50DF50E22A1
:10098B00AB07AA06751900751A01AF03AE02120A5E
:10099B0020AF1AAE191208D28521A07F1E12095161
:1009AB00051AE51A70020519C39405E519648094BC
:0409BB008040D7227F
:10050B00120912E4F51DF51ED2B4D2B5D2B6C2B0A3
:10051B00E51164017005120A818007E51170031261
:10052B00001320B4327F01120AA920B411E5116423
:10053B00017006850D1D850E1E12000E80ECC2B0DB
:10054B00E51E151E7002151DC3E51D6480948050B9
:10055B000685171D85181E20B5377F01120AA920A5
:10056B00B511E51164017006850D1D850E1E120077
:10057B000E80ECC2B0051EE51E7002051DD395184A
:10058B00E5176480F8E51D6480984005E4F51DF5DA
:10059B001E1206F330B60302051B7F01120AA920B7
:1005AB00B618E5117006851D0D851E0E7511017FA0
:0F05BB000A7E00120017D2B080E5C2B002051B05
:09000E00E4F511D2B0AF1EAE1DE5
:10001700EE6003020393EF14B40C00400302039352
:1000270090003575F003A4C58325F0C583730200DE
:100037005902006002007E02008602008F0200A0C3
:100047000200C50201100201C20201E00201ED0235
:100057000291AD25AC240201D8AD25AC241203943E
:100067007F0A120AA9C374409525FDE49524FC1262
:1000770003947F0A0203901209F0E4FFFE80101236
:1000870009F07F017E0080071209F07F027E0012CF
:1000970008348521A0AF1A801A1209F07F017E006B
:1000A7001208348521A0AE19AF1A7C007D05120510
:1000B700DCAF05120AA9AF21120AC58F2122D3E5A9
:1000C7001A9428E519648094804005E4F519F51A17
:1000D700D3E51C9403E51B648094804006751B00E0
:1000E700751C01AD25AC24AF23AE22120AA4E5236B
:1000F7002401FFE43522FEC374409525FDE49524D1
:10010700FC120398AF1A020390D3E51A940AE51973
:10011700648094804005E4F519F51AD3E51C94032F
:10012700E51B648094804006751B00751C01D3E5B0
:10013700259434E524648094804005E4F524F5256E
:10014700AD25AC24AF23AE22120AA4E5232401FF78
:10015700E43522FEE525240D120A9FE5232401FF3D
:10016700E43522FEE525241B120A9FE5232401FF1F
:10017700E43522FEE5252421120A9FE5232401FF09
:10018700E43522FEE525240B120A9FE5232401FF0F
:10019700E43522FEC374139525FDE49524120AA3C2
:1001A700E5232401FFE43522FEC374279525FDE4EA
:1001B7009524FC120398AF1A020390AC1BAD1CAE3A
:1001C70019AF1A1205CA8E338F347C007D40120591
:1001D700DC1203947F01020390E52975F00384AFD5
:1001E700F07E0002098B1209F0AC24AD25AE14AFE6
:1001F700151205CAAC22AD231205CA8E338F34AD52
:1002070034AC331203947F07120AA9AE33AF347CA0
:10021700007D101205DC1203947F07120AA9E5235B
:100227002401FFE43522FEC006C007AE33AF347C9D
:10023700007D181205DCD007D0061203987F07123D
:100247000AA9E5232402FFE43522FEC006C007AE53
:1002570033AF347C007D201205DCD007D0061203B3
:10026700987F07120AA9E5232403FFE43522FEC07D
:1002770006C007AE33AF347C007D301205DCD007F3
:10028700D0061203987F07020390C3E52D9401E57A
:100297002C648094805006752C00752D0190000009
:1002A700E0FEA3E0FF900005E02FF0900004E03EA1
:1002B700F0E0FEA3E0FFD3942AEE6480948040210F
:1002C700052DE52D7002052CD39403E52C6480944D
:1002D700804006752C00752D0174FF900000F0A377
:1002E700F0C3EF9403EE648094805008900000E41C
:1002F700F0A304F0900005E025E0FF900004E03350
:10030700FE74762FF58274073EF583E493FC74013F
:1003170093FDAF2DAE2C120398AF23120AA9E52D3A
:100327002401FFE4352CFEC006C007900005E02538
:10033700E0FF900004E033FE747E2FF58274073EE1
:10034700F583E493FC740193FDD007D0061203985C
:10035700AF23120AA9E52D2402FFE4352CFEC006BF
:10036700C007900005E025E0FF900004E033FE742D
:10037700862FF58274073EF583E493FC740193FDA1
:0C038700D007D006120398AF23120AA979
:010393002247
:1006730002050BE493A3F8E493A34003F68001F28D
:1006830008DFF48029E493A3F85407240CC8C33388
:10069300C4540F4420C8834004F456800146F6DF57
:1006A300E4800B01020408102040809009BFE47E1F
:1006B300019360BCA3FF543F30E509541FFEE4934C
:1006C300A360010ECF54C025E060A840B8E493A313
:1006D300FAE493A3F8E493A3C8C582C8CAC583CA3E
:1006E300F0A3C8C582C8CAC583CADFE9DEE780BEF6
:0109EF000007
:1005CA00EF8DF0A4A8F0CF8CF0A428CE8DF0A42E45
:0205DA00FE22FF
:1005DC00C2D5EC30E709B2D5E4C39DFDE49CFCEE3A
:1005EC0030E715B2D5E4C39FFFE49EFE120612C39A
:1005FC00E49DFDE49CFC800312061230D507C3E495
:06060C009FFFE49EFE22A8
:10061200BC000BBE0029EF8DF084FFADF022E4CCCC
:10062200F875F008EF2FFFEE33FEEC33FCEE9DEC95
:10063200984005FCEE9DFE0FD5F0E9E4CEFD22EDDB
:10064200F8F5F0EE8420D21CFEADF075F008EF2F25
:10065200FFED33FD4007985006D5F0F222C398FD16
:050662000FD5F0EA22B3
:00000001FF
