:03000000020741B3
:0C074100787FE4F6D8FD7581400207883F
:1008500000010002000300040008000C0010000F5B
:10086000000E000D00090005000100110012001328
:1008700000140018001C0020001F001E001D00199D
:100880000015001100210022002300240028002C64
:100890000030002F002E002D0029002500210031FE
:1008A0000032003300340038003C0040003F003E7E
:0808B000003D00390035003164
:100A7800021B000C42000400004200020034420045
:100A880000000101140002320000023400000237A5
:100A9800000002080000011DFF011E0102300000D5
:090AA800012F000112010136FECC
:0B0C02000000007F0B7EBEDEFEDFFC6A
:010C0D0022C4
:0A0BE800FDE4352AFC12046FAF2073
:020BF200AD074D
:0D0BF400E4FCECC39D5006120C020C80F5D1
:010C010022D0
:020A3E00A90706
:100A4000E4FFEFC3995030E4FEEED39478748094C1
:100A5000804021E4FDEDC39478748094805012E4CA
:100A6000FCECC394787480948050030C80F30D8068
:070A7000E40E80D50F80CBDE
:010A7700225C
:0A0C0E00A81AEF08800123D8FDFFAB
:010C180022B9
:1009FE00C3EF9401EE6480948050047E007F01D397
:100A0E00EF9404EE6480948040047E007F04EE70C8
:100A1E001EEF24FE600E14600F1460102403700F7E
:100A2E007527EE227527DD227527BB2275277722C3
:100B6D00050CE50C7002050BD39404E50B64809421
:100B7D00804006750B00750C01AF0CAE0B0209FE23
:1009B200C3EF9401EE6480948050047E007F01D3E3
:1009C200EF9404EE6480948040047E007F04EE7015
:1009D2002AEF24FE60111460151460192403701BA1
:1009E200751688759088227516447590442275167E
:0C09F200227590222275161175901122BA
:100B8D00052DE52D7002052CD39404E52C6480947D
:100B9D00804006752C00752D01AF2DAE2C0209B2CB
:100B4C00EE701DEF14600E1460102402701275808C
:100B5C00FFE4F59022E4F58080037580FF7590FF2B
:010B6C002266
:100B1C000519E51970020518C3E518648094805016
:100B2C0006751800751902D3E5199402E51864804E
:100B3C0094804005E4F518F519AF19AE18020B4C6A
:10090E007D067C00C3EE648094805003E4FEFFD32A
:10091E00EF9DEC6480F8EE6480984004AE04AF0561
:10092E00EE702EEF14601514601624FE601614601F
:10093E001514601024067019E4F51A22751A012296
:10094E00751AFF22800475270E227F037E0012097E
:01095E00B2E6
:01095F002275
:01000A0022D3
:07000300758C4B758AFE228B
:090C1900758901120003D28C223E
:050C2200D2AFD2A922AF
:03000B000208B830
:1008B800C0E0C0F0C0D01200030513E51375F014B2
:1008C80084E5F0701E6312FF852F0D052F0511E5D5
:1008D8001170020510D3E52F94C8748094804003EA
:1008E800752F00D3E51394D2748094804003751358
:1008F80000D3E52F943C748094804003752F00D07A
:06090800D0D0F0D0E03277
:10096000752A00752B01752800752901E4F580F5BD
:1009700090F510F511F523F524F51FF520F52175F7
:100980002240F5177F01FE1209FE75B001D2B4D2E4
:10099000B5D2B6D2B7C2B0E4F518F519751501FF96
:1009A000FE120B4C12090EE4F518F519120C19027F
:0209B0000C2217
:04046B00AF29AE28DF
:10046F00AB05AA048F828E83C3E5829401E5836472
:10047F008094805003900001D3E5829403E5836458
:10048F008094804003900003C3EB9401EA6480944E
:10049F00805003E4FAFBD3EB9440EA6480948040ED
:1004AF00047A007B40D3EB9400EA64809480400E82
:1004BF00D3EB9408EA64809480500375A0FED3EBCD
:1004CF009408EA64809480400ED3EB9410EA648021
:1004DF009480500375A0EFD3EB9410EA648094805E
:1004EF00400ED3EB9418EA64809480500375A0FDFE
:1004FF00D3EB9418EA64809480400ED3EB9420EAF7
:10050F0064809480500375A0DFD3EB9420EA64805D
:10051F009480400ED3EB9428EA6480948050037546
:10052F00A0FBD3EB9428EA64809480400ED3EB9425
:10053F0030EA64809480500375A0BFD3EB9430EA07
:10054F0064809480400ED3EB9438EA64809480509A
:10055F000375A0F7D3EB9438EA64809480400ED3F0
:10056F00EB9440EA64809480500375A07F7C007DFB
:10057F0010AF03AE021206B6AA04AB05752E01AE7C
:10058F0083AF82EE704CEF24FE60191460282402B2
:10059F007040AF2EEB14F8EF08800123D8FDF580E3
:1005AF00E4F59022E4F580AF2EEB14F8EF0880010C
:1005BF0023D8FDF59022AF2EEB14FEF8EF08800143
:1005CF0023D8FDF580AF2EA806EF08800123D8FDB4
:0205DF00F59095
:0105E10022F7
:1007CD000520E5207002051FD39440E51F64809439
:1007DD00804005E4F51FF520C3E51F64809480502B
:1007ED0006751F00752040E522152270021521C3E4
:1007FD00E51F648094805006751F00752040D3E579
:10080D00209440E51F648094804005E4F51FF52099
:10081D00052BE52B7002052AD39440E52A648094BC
:10082D0080401F752A00752B010529E529700205E9
:10083D0028D39403E52864809480400675280075BC
:03084D002901225C
:100BAD00AF11AE10120017D3E511951CE51B648033
:0E0BBD00F8E5106480984005E4F510F511226B
:100AE800AB07AA06751F00752001AF03AE02120BF3
:100AF8004CAF20AE1F1209FE8527A07F1E120A3EAA
:100B08000520E5207002051FC39405E51F64809445
:040B18008040D72220
:040C2700E4F5A0222E
:040C2B0075A0FF228F
:100AB200C3748094805002E4FFEFD39464748094F2
:100AC2008040027F64E4FEEEC3946474809480509C
:100AD20014EE9F5005120C278008EED39F4003129C
:050AE2000C2B0E80E268
:010AE70022EC
:1005E20020B4327F01120BF220B411E515640170C0
:1005F2000685102385112412000E80ECC2B0E5247A
:10060200152470021523C3E5236480948050068567
:100612001B23851C2420B5377F01120BF220B51154
:10062200E5156401700685102385112412000E80E1
:10063200ECC2B00524E52470020523D3951CE51B0A
:100642006480F8E5236480984005E4F523F52420CE
:10065200B6227F01120BF220B618E515700685232B
:10066200108524117515017F0A7E00120017D2B081
:1006720080E5C2B020B7287F01120BF220B719E53E
:100682001564017006851023851124E4F515D2B096
:100692007F0AFE12001780E4C2B0E4F523F524C2FB
:0206A200B02284
:100BCB00120960E51564017005120BAD8007E51580
:0D0BDB0070031200131205E21207CD80E630
:09000E00E4F515D2B0AF24AE23D5
:10001700EE600302046AEFB40E00400302046A9024
:10002700002DF82828730200570201010201080277
:10003700012602012E02013702014802016D020169
:10004700B802026A02028802029502033902043BDF
:10005700E4F580F590F5A0AF19AE18120B4CE50F3B
:1000670014602814604014605814607324046003FB
:1000770002046AAF137E00AC2AAD2B1206B6ED4C14
:100087007002F50EE4F50A750F0122E513540170AD
:1000970002050EC3E50E946474809480403C750E8F
:1000A70064750F028034E51354017002050AC3E535
:1000B7000A9464748094804006750E64750F0380FB
:1000C70019E51354017002150ED3E50E94007480E0
:1000D70094805006E4F50E750F04AF0E020AB2E5E0
:1000E7001354017002050AC3E50A9464748094806E
:1000F7004005E4F50EF50F020B1CAD2BAC2A0202EE
:1001070080AD2BAC2A12046B7F0A120BF2C374402A
:10011700952BFDE4952AFC12046B7F0A0204381222
:100127000B1CE4FFFE8010120B1C7F017E00800772
:10013700120B1C7F027E0012090E8527A0AF2080BC
:100147001A120B1C7F017E0012090E8527A0AE1F15
:10015700AF207C007D051206B6AF05120BF2AF2764
:10016700120C0E8F2722D3E5209428E51F64809474
:10017700804005E4F51FF520D3E5229403E52164CB
:100187008094804006752100752201AD2BAC2AAF03
:1001970029AE28120BEDE5292401FFE43528FEC31B
:1001A7007440952BFDE4952AFC12046FAF200204DE
:1001B70038D3E520940AE51F648094804005E4F570
:1001C7001FF520D3E5229403E5216480948040063F
:1001D700752100752201D3E52B9434E52A648094B8
:1001E700804005E4F52AF52BAD2BAC2AAF29AE28C4
:1001F700120BEDE5292401FFE43528FEE52B240D3C
:10020700120BE8E5292401FFE43528FEE52B241B22
:10021700120BE8E5292401FFE43528FEE52B24210C
:10022700120BE8E5292401FFE43528FEE52B240B12
:10023700120BE8E5292401FFE43528FEC374139562
:100247002BFDE4952A120BECE5292401FFE4352860
:10025700FEC37427952BFDE4952AFC12046FAF208B
:10026700020438AC21AD22AE1FAF201206A48E398E
:100277008F3A7C007D401206B612046B7F010204A0
:1002870038E52F75F00384AFF07E00020AE8120B01
:100297001CAC2AAD2BAE18AF191206A4AC28AD2999
:1002A7001206A48E398F3AAD3AAC3912046B7F0728
:1002B700120BF2AE39AF3A7C007D101206B612046B
:1002C7006B7F07120BF2E5292401FFE43528FEC0F6
:1002D70006C007AE39AF3A7C007D181206B6D007C4
:1002E700D00612046F7F07120BF2E5292402FFE400
:1002F7003528FEC006C007AE39AF3A7C007D201214
:1003070006B6D007D00612046F7F07120BF2E52955
:100317002403FFE43528FEC006C007AE39AF3A7C98
:10032700007D301206B6D007D00612046F7F070291
:100337000438C3E5339401E5326480948050067530
:100347003200753301900000E0FEA3E0FF90000546
:10035700E02FF0900004E03EF0E0FEA3E0FFD3942E
:100367002AEE6480948040210533E533700205321C
:10037700D39403E532648094804006753200753368
:100387000174FF900000F0A3F0C3EF9403EE6480C4
:1003970094805008900000E4F0A304F0900005E07A
:1003A70025E0FF900004E033FE74502FF5827408B7
:1003B7003EF583E493FC740193FDAF33AE32120430
:1003C7006FAF29120BF2E5332401FFE43532FEC08B
:1003D70006C007900005E025E0FF900004E033FE2B
:1003E70074582FF58274083EF583E493FC740193E7
:1003F700FDD007D00612046FAF29120BF2E53324A4
:1004070002FFE43532FEC006C007900005E025E094
:10041700FF900004E033FE74602FF58274083EF508
:1004270083E493FC740193FDD007D00612046FAFE9
:1004370029020BF2AFA0EF70047FFF80027F008FCD
:10044700A0AE2AAF2B7C007D1E1206B6AF05120B9D
:10045700F2E52B6401452A700A120B1CAF19AE187E
:03046700120B4C29
:01046A00226F
:10074D00020BCBE493A3F8E493A34003F68001F2EC
:10075D0008DFF48029E493A3F85407240CC8C333AD
:10076D00C4540F4420C8834004F456800146F6DF7C
:10077D00E4800B0102040810204080900A78E47E8A
:10078D00019360BCA3FF543F30E509541FFEE49371
:10079D00A360010ECF54C025E060A840B8E493A338
:1007AD00FAE493A3F8E493A3C8C582C8CAC583CA63
:1007BD00F0A3C8C582C8CAC583CADFE9DEE780BE1B
:010AB1000044
:1006A400EF8DF0A4A8F0CF8CF0A428CE8DF0A42E6A
:0206B400FE2224
:1006B600C2D5EC30E709B2D5E4C39DFDE49CFCEE5F
:1006C60030E715B2D5E4C39FFFE49EFE1206ECC3E5
:1006D600E49DFDE49CFC80031206EC30D507C3E4E0
:0606E6009FFFE49EFE22CE
:1006EC00BC000BBE0029EF8DF084FFADF022E4CCF2
:1006FC00F875F008EF2FFFEE33FEEC33FCEE9DECBB
:10070C00984005FCEE9DFE0FD5F0E9E4CEFD22ED00
:10071C00F8F5F0EE8420D21CFEADF075F008EF2F4A
:10072C00FFED33FD4007985006D5F0F222C398FD3B
:05073C000FD5F0EA22D8
:00000001FF
