:030000000205C135
:0C05C100787FE4F6D8FD7581680206081A
:100AFD0001020304080C100F0E0D0905011112134C
:100B0D0014181C201F1E1D19151121222324282CF9
:100B1D00302F2E2D29252131323334383C403F3EA4
:040B2D003D393531E8
:10094E0001540A014E0A025E001FC181C100012A34
:10095E000001520001530001550E410002004100FA
:10096E00013441000001012B000165000166000108
:10097E0068000121000156FF015701016400016367
:07098E00000128010167FED2
:1006CD00EFFD7C00640170037590FEED64024C70CB
:1006DD00037590FDED64034C70037590FBED6404A0
:1006ED004C70037590F7ED64054C70037590EFED4C
:1006FD0064064C70037590DFED64074C70037590C4
:10070D00BFED64084C700375907FED4C70037590D0
:10071D00FFED4C70037590FFED640B4C7002F5907E
:10072D00ED64154C700375900FED64164C700375E8
:03073D00900F22F8
:10090000EF14601C14601E14602014602214602414
:1009100014602624FB6027240B70267580FF80243A
:100920007580FE801F7580FD801A7580FB801575AF
:1009300080F780107580EF800B7580DF8006E4F50E
:0E09400080C2A722AF54120C05D2A7C2A72274
:1007AC00EFB40A0050599007B9F82828730207D7FC
:1007BC000207DC0207E10207E60207EB0207F00280
:1007CC0007F50207FA0207FF02080475803F802B29
:1007DC00758006802675805B802175804F801C7526
:1007EC008066801775806D801275807D800D758098
:1007FC0007800875807F800375806FD2A6C2A62201
:020BA6008F0EB0
:100BA800E4F50FE50E2401FFE433FEC3E50F9FEEE5
:0F0BB8006480F87480985007120C97050F80E442
:010BC700220B
:0E0C970000007F057E347DC3DDFEDEFCDFFA4B
:010CA500222C
:0A0CBD00D2A07F90120C05C2A02205
:100C0500E4FEEEC39F5012E4FDEDC3947874809426
:090C15008050030D80F30E80E90C
:010C1E0022B3
:100C7600D2AFD2A8D288438902D2A9E4F58CF58AEC
:010C8600224B
:10064D00E4F508FFF509F50AF50BF50C750D80E5D8
:10065D0052606CEFC3942074809480505FA907EFB3
:10066D002408FDE433FCE9C39DEC6480F8748098A4
:10067D00501B742C29F8E6D39406748094804004A2
:10068D00E50D420CE50DC313F50D0980D2EF24F8ED
:10069D00601124F8601224F8601324187012850C70
:1006AD000B800D850C538008850C0A8003850C0981
:0F06BD00E4F50C750D8074082FFF8097E4F5525B
:0106CC00220B
:100484007E1812064DE553120B8004E907050D088A
:1004940005010C04FD0D04ED1504F51605051804FD
:1004A400F91905111C04E14005194204E54304DD72
:1004B4004404D14504D54604D94705214A051D52B3
:1004C40005155A05095E04F1D900000523E4FE80F0
:1004D4004E7E01804A7E0280467E0380427E0480F6
:1004E4003E7E05803A7E0680367E0780327E088016
:1004F4002E7E09802A7E0A80267E0B80227E0C8036
:100504001E7E0D801A7E0E80167E0F80127E108055
:100514000E7E11800A7E1280067E1380027E14AF46
:0105240006D0
:0105250022B3
:03000300020740B1
:10074000C0E0C0D075D000C000C006C007300109AD
:10075000C201752A00D28C8048AF2AC3EF9420745E
:100760008094804012D3EF94317480948050087547
:100770005E00755F1F802AE55F155F7002155E24BD
:100780002CF8A62A752A00D3E55F94FFE55E648005
:10079000947F500D755E00755F1FD201C28C75523B
:0C07A00001D007D006D000D0D0D0E0324D
:03000B00020CDF05
:030CDF00052A32B1
:0B0CA6000000007F0B7EBEDEFEDFFCC6
:010CB1002220
:090C1F00AD60AF5D120338AF585F
:020C2800AD0716
:0D0C2A00E4FCECC39D5006120CA60C80F5F6
:010C3700229A
:020A5600A907EE
:100A5800E4FFEFC3995030E4FEEED39478748094A9
:100A6800804021E4FDEDC39478748094805012E4B2
:100A7800FCECC394787480948050030C80F30D8050
:070A8800E40E80D50F80CBC6
:010A8F002244
:0A0CB200A851EF08800123D8FDFFD0
:010CBC002215
:100A9000EFC394017480948050027F01EFD39404DB
:100AA0007480948040027F04EF24FE600E14600F77
:100AB0001460102403700F755CEE22755CDD2275E6
:070AC0005CBB22755C77228C
:100C38000523D3E52394047480948040037523012D
:050C4800AF23020A9039
:10099600EFC394017480948050027F01EFD39404D6
:1009A6007480948040027F04EF24FE601114601569
:1009B6001460192403701B754D8875908822754D37
:1009C6004475904422754D2275902222754D1175FD
:0309D6009011225B
:100C4D000561D3E56194047480948040037561015E
:050C5D00AF61020996E1
:100BE700EF14600E146010240270127580FFE4F594
:0E0BF7009022E4F58080037580FF7590FF2248
:100BC8000550C3748094805003755002D3E5509447
:0F0BD80002748094804003E4F550AF50020BE7A5
:1009D9007E06C3748094805002E4FFEFD39E4002E8
:1009E900AF06EF14601514601624FE601614601526
:1009F90014601024067017E4F5512275510122750F
:0E0A090051FF228004755C0E227F03120996B5
:010A170022BC
:010CE20022EF
:070CD000758C4B758AFE22B2
:090CC700758901120CD0D28C22B7
:05000600D2AFD2A922D7
:03000B0002086187
:10086100C0E0C0F0C0D0120CD0052AE52A75F01402
:1008710084E5F070186328FF85632405630527D399
:10088100E56394C8748094804003756300D3E52ABE
:1008910094D2748094804003752A00D3E563943C1C
:1008A100748094804003756300D0D0D0F0D0E032E2
:100A1800756001755D01E4F580F590F527F55AF5E7
:100A280058755940F54F7F01120A9075B001D2B43C
:100A3800D2B5D2B6D2B7C2B0E4F550754C01FF12A8
:0E0A48000BE71209D9E4F550120CC7020006A4
:03033500FDAF5DBC
:10033800EFC394017480948050027F01EFD394033B
:100348007480948040027F03EDC39401748094808C
:100358005002E4FDEDD394407480948040027D40C7
:10036800EDFB7A00D3940074809480400DD3EB9415
:100378000874809480500375A0FED3EB9408EA6457
:10038800809480400ED3EB9410EA648094805003EC
:1003980075A0EFD3EB9410EA64809480400ED3EB01
:1003A8009418EA64809480500375A0FDD3EB9418E8
:1003B800EA64809480400ED3EB9420EA64809480B1
:1003C800500375A0DFD3EB9420EA64809480400E3C
:1003D800D3EB9428EA64809480500375A0FBD3EB98
:1003E8009428EA64809480400ED3EB9430EA6480C9
:1003F8009480500375A0BFD3EB9430EA6480948056
:10040800400ED3EB9438EA64809480500375A0F7CB
:10041800D3EB9438EA64809480400ED3EB9440EA9E
:1004280064809480500375A07F53050F756201EFB7
:1004380024FE601914602824027040AF62ED14F89D
:10044800EF08800123D8FDF580E4F59022E4F580DB
:10045800AF62ED14F8EF08800123D8FDF59022AFC4
:1004680062ED14FEF8EF08800123D8FDF580AF6235
:0B047800A806EF08800123D8FDF590D6
:010483002256
:10080C000558D3E5589440748094804003E4F5581F
:10081C00C37480948050037558401559C3748094E8
:10082C00805003755840D3E55894407480948040B0
:10083C0003E4F5580560D3E56094407480948040DF
:10084C0013756001055DD3E55D940374809480405D
:05085C0003755D01229F
:100C8700AF2712000EE527D395554003E4F5272239
:100B5900AB07755801C3E558940574809480501605
:100B6900AF03120BE7AF58120A90855CA07F1E12E3
:070B79000A56055880DF2237
:040CD700E4F5A0227E
:040CDB0075A0FF22DF
:100AC700C3748094805002E4FFEFD39464748094DD
:100AD7008040027F64E4FEEEC39464748094805087
:100AE70014EE9F5005120CD78008EED39F400312D7
:050AF7000CDB0E80E2A3
:010AFC0022D7
:0708B100E4F54CD2B0AF5A90
:1008B8008F081206CDC3E508940A74809480500905
:1008C8007F01120900AF08802BD3E508940A7480D1
:1008D800948040237F01120900E50875F00A84FF1F
:1008E8001207AC7F01120C050F120900E50875F01C
:0808F8000A84AFF01207AC22E4
:1005260020B4247F01120C2820B40EE54C6401701F
:100536000385275A1208B180EFC2B0155AC37480DA
:100546009480500385555A20B5247F01120C28202B
:10055600B50EE54C6401700385275A1208B180EF89
:10056600C2B0055AE55AD395554003E4F55A20B66C
:10057600227F01120C2820B618E54C7003855A27F5
:10058600754C017F0A12000EAF5A1208B8D2B0801D
:10059600E5C2B020B7227F01120C2820B715E54C22
:1005A6006401700385275AE4F54CD2B07F0A120025
:0B05B6000E80E8C2B0E4F55AC2B0228B
:100B3100120A18E4F54C755A0EE54C640170051261
:100B41000C878009E54C7005AF5A12000E1205267C
:080B5100120C6212080C80E195
:10000E00EF14B40E00400302033490002675F00383
:10001E00A4C58325F0C5837302005002005502006B
:10002E006E02007502007C02008B0200A90200DA4B
:10003E0002015602016B0201760201D70202620230
:10004E000295AD60020161AD60AF5D1203387F0AAB
:10005E00120C28C3744095601203357F0A02025FAA
:10006E00120BC8E4FF800C120BC87F018005120B27
:10007E00C87F021209D9855CA0AF588013120BC835
:10008E007F011209D9855CA0E55875F00584AFF0A3
:10009E00120C28AF5C120CB28F5C22D3E558942858
:1000AE00748094804003E4F558D3E559940374802A
:1000BE0094804003755901120C1FE55D04FFC37453
:1000CE00409560FD120338AF5802025FD3E5589495
:1000DE000A748094804003E4F558D3E55994037470
:1000EE008094804003755901D3E5609434748094F4
:1000FE00804003E4F560120C1FE55D04FFE560240B
:10010E000DFD120C23E55D04FFE560241BFD120CB2
:10011E0023E55D04FFE5602421FD120C23E55D045B
:10012E00FFE560240BFD120C23E55D04FFC3741381
:10013E009560FD120C23E55D04FFC374279560FDE9
:10014E00120338AF5802025FE5588559F0A4F5083E
:10015E00543FFDAF5D1203387F0102025FE5637508
:10016E00F00384AFF0020B59120BC8E5508560F016
:10017E00A4855DF0A4F5081203357F07120C28E55F
:10018E0008540FFDAF5D1203387F07120C28E55D92
:10019E0004FFE50875F01884ADF01203387F0712DE
:1001AE000C28E55D2402FFE508541FFD1203387F7D
:1001BE0007120C28E55D2403FFE50875F03084ADC9
:1001CE00F01203387F0702025FC3E5659401748065
:1001DE0094805003756501900000E0FF900002E0EE
:1001EE002FF0E0FF7E00D3942A7480948040160591
:1001FE0065D3E56594037480948040037565019022
:10020E00000074FFF0C3EF9403EE648094805006F8
:10021E009000007401F0900002E0900AFD93FDAF93
:10022E0065120338AF5D120C28E56504FF900002DD
:10023E00E0900B0193FD120338AF5D120C28E565BB
:10024E002402FF900002E0900B0593FD120338AFDD
:10025E005D020C28E4F580F590AF50120BE7AFA0CD
:10026E00EF70047FFF80027F008FA0E56075F01EA7
:10027E0084AFF0120C28E5606401600302033412AF
:10028E000BC8AF50020BE7E4F580F590F5A0AF5028
:10029E00120BE7E52614601F14603714604F1460CC
:1002AE006A24046003020334E52A54017002F52522
:1002BE00E4F52275260122E52A540170020525C3B4
:1002CE00E525946474809480403C752564752602FF
:1002DE008034E52A540170020522C3E52294647429
:1002EE0080948040067525647526038019E52A548E
:1002FE000170021525D3E525940074809480500674
:10030E00E4F525752604AF25020AC7E52A540170C7
:10031E00020522C3E5229464748094804005E4F5BE
:06032E0025F526120BC8A4
:0103340022A6
:100C62001204848F29E52924F460028006E4F54CFD
:040C7200755A01228C
:1005CD00020B31E493A3F8E493A34003F68001F208
:1005DD0008DFF48029E493A3F85407240CC8C3332F
:1005ED00C4540F4420C8834004F456800146F6DFFE
:1005FD00E4800B010204081020408090094EE47E37
:10060D00019360BCA3FF543F30E509541FFEE493F2
:10061D00A360010ECF54C025E060A840B8E493A3B9
:10062D00FAE493A3F8E493A3C8C582C8CAC583CAE4
:10063D00F0A3C8C582C8CAC583CADFE9DEE780BE9C
:010995000061
:100B8000D083D082F8E4937012740193700DA3A304
:100B900093F8740193F5828883E473740293686018
:060BA000EFA3A3A380DF18
:00000001FF
