:0300000002000EED
:0C000E00787FE4F6D8FD758118020055DB
:09026000011700010B010118FE59
:08026A007F6C7E91DEFEDFFCDB
:010272002269
:02024500AD0703
:0D024700E4FCECC39D500612026A0C80F529
:010254002287
:0A025500A811EF08800123D8FDFF77
:01025F00227C
:10013800C3EF9401EE6480948050047E007F01D365
:10014800EF9404EE6480948040047E007F04EE7097
:100158001EEF24FE600E14600F1460102403700F4D
:100168007514EE227514DD227514BB2275147722DE
:1001E6000509E50970020508D39404E508648094BE
:1001F600804006750800750901AF09AE080201388E
:1000EC00C3EF9401EE6480948050047E007F01D3B2
:1000FC00EF9404EE6480948040047E007F04EE70E4
:10010C002AEF24FE60111460151460192403701B6F
:10011C00750D8875908822750D4475904422750D67
:0C012C002275902222750D117590112291
:100206000516E51670020515D39404E51564809469
:10021600804006751500751601AF16AE150200EC86
:1001A400EE701DEF14600E1460102402701275803E
:1001B400FFE4F59022E4F58080037580FF7590FFDD
:0101C4002218
:100226000510E5107002050FD39402E50F64809463
:0F023600804005E4F50FF510AF10AE0F0201A4E4
:10009A007D067C00C3EE6480948050047E007F0657
:1000AA00D3EF9DEC6480F8EE6480984003E4FEFF91
:1000BA00EE702EEF14601514601624FE601614609C
:1000CA001514601024067019E4F511227511012225
:1000DA007511FF22800475140E227F037E00120020
:0100EA00EC29
:0100EB0022F2
:010288002253
:07027C00758C4B758AFE2210
:0902730075890112027CD28C2273
:05028300D2AFD2A92258
:03000B0002017877
:10017800C0E0C0D012027C050CE50C641470186352
:100188000BFF85170A0517F50CD3E51794647480DF
:0C01980094804003751700D0D0D0E032F6
:1001C500E4F580F590F50EFFFE120138E4F50FF524
:1001D500107F01FE1201A41F12009A12027302027F
:0101E5008396
:080003001201C58514A080FB69
:10001A00020003E493A3F8E493A34003F68001F2F9
:10002A0008DFF48029E493A3F85407240CC8C333E7
:10003A00C4540F4420C8834004F456800146F6DFB6
:10004A00E4800B0102040810204080900260E47EE4
:10005A00019360BCA3FF543F30E509541FFEE493AB
:10006A00A360010ECF54C025E060A840B8E493A372
:10007A00FAE493A3F8E493A3C8C582C8CAC583CA9D
:10008A00F0A3C8C582C8CAC583CADFE9DEE780BE55
:010269000094
:00000001FF
