:030000000203D424
:0C03D400787FE4F6D8FD75812B02041B35
:0907F200012200010D010123FEAA
:0B07DB000000007F0B7EBEDEFEDFFC96
:0107E60022F0
:0A07B300FDE4351DFC120261AF15D4
:0207BD00AD0786
:0D07BF00E4FCECC39D50061207DB0C80F536
:0107CC00220A
:02069400A907B4
:10069600E4FFEFC3995030E4FEEED394787480946F
:1006A600804021E4FDEDC39478748094805012E478
:1006B600FCECC394787480948050030C80F30D8016
:0706C600E40E80D50F80CB8C
:0106CD00220A
:0A07E700A813EF08800123D8FDFFDE
:0107F10022E5
:10065400C3EF9401EE6480948050047E007F01D344
:10066400EF9404EE6480948040047E007F04EE7076
:100674001EEF24FE600E14600F1460102403700F2C
:10068400751AEE22751ADD22751ABB22751A7722A5
:100758000509E50970020508D39404E50864809446
:10076800804006750800750901AF09AE08020654F5
:1005C000C3EF9401EE6480948050047E007F01D3D9
:1005D000EF9404EE6480948040047E007F04EE700B
:1005E0002AEF24FE60111460151460192403701B97
:1005F000750F8875908822750F4475904422750F89
:0C0600002275902222750F1175901122B6
:100778000520E5207002051FD39404E51F648094CA
:10078800804006751F00752001AF20AE1F0205C00E
:10073700EE701DEF14600E146010240270127580A5
:10074700FFE4F59022E4F58080037580FF7590FF44
:01075700227F
:100707000512E51270020511C3E51164809480504B
:1007170006751100751202D3E5129402E511648083
:1007270094804005E4F511F512AF12AE11020737B8
:10056E007D067C00C3EE648094805003E4FEFFD3CE
:10057E00EF9DEC6480F8EE6480984004AE04AF0505
:10058E00EE702EEF14601514601624FE60161460C3
:10059E001514601024067019E4F513227513012248
:1005AE007513FF228004751A0E227F037E0012053A
:0105BE00C07C
:0105BF002219
:01000A0022D3
:07000300758C4B758AFE228B
:0907FC00758901120003D28C2260
:05080500D2AFD2A922D0
:03000B0002060CDE
:10060C00C0E0C0F0C0D0120003050EE50E75F0146A
:10061C0084E5F0701E630DFF85220A0522050CE5AA
:10062C000C7002050BD3E52294C8748094804003AF
:10063C00752200D3E50E94D2748094804003750E1D
:08064C0000D0D0D0F0D0E03264
:1006CE00751D00751E01751B00751C01E4F580F586
:1006DE0090F50BF50CF514F515F516751740F5108C
:1006EE007F01FE120654E4F511F512FFFE120737D4
:0906FE0012056E1207FC0208054A
:08025900AD1EAC1DAF1CAE1B75
:10026100AB05AA048F828E83C3E5829401E5836482
:100271008094805003900001D3E5829403E5836468
:100281008094804003900003C3EB9401EA6480945E
:10029100805003E4FAFBD3EB9440EA6480948040FD
:1002A100047A007B40D3EB9400EA64809480400E92
:1002B100D3EB9408EA64809480500375A0FED3EBDD
:1002C1009408EA64809480400ED3EB9410EA648031
:1002D1009480500375A0EFD3EB9410EA648094806E
:1002E100400ED3EB9418EA64809480500375A0FD0E
:1002F100D3EB9418EA64809480400ED3EB9420EA07
:1003010064809480500375A0DFD3EB9420EA64806D
:100311009480400ED3EB9428EA6480948050037556
:10032100A0FBD3EB9428EA64809480400ED3EB9435
:1003310030EA64809480500375A0BFD3EB9430EA17
:1003410064809480400ED3EB9438EA6480948050AA
:100351000375A0F7D3EB9438EA64809480400ED300
:10036100EB9440EA64809480500375A07F7C007D0B
:1003710010AF03AE02120460AA04AB05752101AEF1
:1003810083AF82EE704CEF24FE60191460282402C2
:100391007040AF21EB14F8EF08800123D8FDF58000
:1003A100E4F59022E4F580AF21EB14F8EF08800129
:1003B10023D8FDF59022AF21EB14FEF8EF08800160
:1003C10023D8FDF580AF21A806EF08800123D8FDD1
:0203D100F590A5
:0103D3002207
:1004EB000515E51570020514D39440E5146480944A
:1004FB00804005E4F514F515C3E514648094805031
:10050B0006751400751540E517151770021516C3FF
:10051B00E514648094805006751400751540D3E57E
:10052B00159440E514648094804005E4F514F515AA
:10053B00051EE51E7002051DD39440E51D648094D5
:10054B0080401F751D00751E01051CE51C70020502
:10055B001BD39403E51B648094804006751B0075C8
:03056B001C01224E
:10079800AF0CAE0B12000ED3E50C9409E50B648088
:0B07A80094804006750B00750C0122C8
:0E07CD001206CEE4FFFE12000E1204EB80F5C1
:10000E00EE6003020258EFB40A0040030202589059
:10001E000024F828287302004202009602009E0275
:10002E0000B80200C00200C90200DA0200FF02019D
:10003E00470201F6752400752564751B00751C01B9
:10004E007D367C0012025DAF251206947D3A7C004F
:10005E0012025DAF251206947D267C0012025DAF62
:10006E00251206947D2A7C0012025DAF251206949D
:10007E007D167C0012025DAF251206947D1A7C005F
:10008E0012025DAF250206941202597F010201F39E
:10009E001202597F0A1207BDC37440951EFDE495E6
:1000AE001DFC12025D7F0A0201F3120707E4FFFE38
:1000BE0080101207077F017E0080071207077F025C
:1000CE007E0012056E851AA0AF15801A1207077FE3
:1000DE00017E0012056E851AA0AE14AF157C007D50
:1000EE0005120460AF051207BDAF1A1207E78F1A8B
:1000FE0022D3E5159428E514648094804005E4F538
:10010E0014F515D3E5179403E51664809480400624
:10011E00751600751701120259AF151207BDE51CB1
:10012E002401FFE4351BFEC37440951EFDE4951DAE
:10013E00FC120261AF150201F3D3E515940AE51422
:10014E00648094804005E4F514F515D3E517940307
:10015E00E516648094804006751600751701D3E588
:10016E001E9434E51D648094804005E4F51DF51E53
:10017E00120259AF151207BDE51C2401FFE4351B11
:10018E00FEE51E240D1207B3E51C2401FFE4351B0A
:10019E00FEE51E241B1207B3E51C2401FFE4351BEC
:1001AE00FEE51E24211207B3E51C2401FFE4351BD6
:1001BE00FEE51E240B1207B3E51C2401FFE4351BDC
:1001CE00FEC37413951EFDE4951D1207B7E51C249E
:1001DE0001FFE4351BFEC37427951EFDE4951DFC3F
:1001EE00120261AF150207BDE4F524F525C3E5251E
:1001FE009515E5146480F8E524648098504CAD257F
:10020E00AC2412025D7F0A1207BD752600752740C9
:10021E00D3E5279517E5166480F8E52664809840A7
:10022E001FE51C2401FFE4351BFEAD27AC26120290
:10023E00617F0A1207BDE527152770D4152680D0D9
:0A024E000525E52570A7052480A30F
:010258002283
:1003E0000207CDE493A3F8E493A34003F68001F25F
:1003F00008DFF48029E493A3F85407240CC8C3331E
:10040000C4540F4420C8834004F456800146F6DFEC
:10041000E4800B01020408102040809007F2E47E83
:10042000019360BCA3FF543F30E509541FFEE493E1
:10043000A360010ECF54C025E060A840B8E493A3A8
:10044000FAE493A3F8E493A3C8C582C8CAC583CAD3
:10045000F0A3C8C582C8CAC583CADFE9DEE780BE8B
:0107FB0000FD
:10046000C2D5EC30E709B2D5E4C39DFDE49CFCEEB7
:1004700030E715B2D5E4C39FFFE49EFE120496C395
:10048000E49DFDE49CFC800312049630D507C3E490
:060490009FFFE49EFE2226
:10049600BC000BBE0029EF8DF084FFADF022E4CC4A
:1004A600F875F008EF2FFFEE33FEEC33FCEE9DEC13
:1004B600984005FCEE9DFE0FD5F0E9E4CEFD22ED59
:1004C600F8F5F0EE8420D21CFEADF075F008EF2FA3
:1004D600FFED33FD4007985006D5F0F222C398FD94
:0504E6000FD5F0EA2231
:00000001FF
