:0300000002038672
:0C038600787FE4F6D8FD75812B0203CDD2
:09079000012200010D010123FE0C
:0B076E000000007F0B7EBEDEFEDFFC03
:01077900225D
:0A075400FDE4351DFC120213AF1581
:02075E00AD07E5
:0D076000E4FCECC39D500612076E0C80F502
:01076D002269
:1006AF00E4FEEEC39F5021E4FDEDD3947874809463
:1006BF00804012E4FCECC394787480948050030C57
:0806CF0080F30D80E40E80DAD7
:0106D7002200
:0A077A00A813EF08800123D8FDFF4B
:010784002252
:10060600C3EF9401EE6480948050047E007F01D392
:10061600EF9404EE6480948040047E007F04EE70C4
:100626001EEF24FE600E14600F1460102403700F7A
:10063600751AEE22751ADD22751ABB22751A7722F3
:1006F9000509E50970020508D39404E508648094A6
:10070900804006750800750901AF09AE08020606A2
:10057200C3EF9401EE6480948050047E007F01D327
:10058200EF9404EE6480948040047E007F04EE7059
:100592002AEF24FE60111460151460192403701BE5
:1005A200750F8875908822750F4475904422750FD7
:0C05B2002275902222750F117590112205
:100719000520E5207002051FD39404E51F64809429
:10072900804006751F00752001AF20AE1F020572BB
:1006D800EE701DEF14600E14601024027012758005
:1006E800FFE4F59022E4F58080037580FF7590FFA4
:0106F80022DF
:10067F000512E51270020511C3E5116480948050D4
:10068F0006751100751202D3E5129402E51164800C
:10069F0094804005E4F511F512AF12AE110206D8A1
:100520007D067C00C3EE648094805003E4FEFFD31C
:10053000EF9DEC6480F8EE6480984004AE04AF0553
:10054000EE702EEF14601514601624FE6016146011
:100550001514601024067019E4F513227513012296
:100560007513FF228004751A0E227F037E00120588
:010570007218
:010571002267
:01000A0022D3
:07000300758C4B758AFE228B
:09079A00758901120003D28C22C2
:0507A300D2AFD2A92233
:03000B000205BE2D
:1005BE00C0E0C0F0C0D0120003050EE50E75F014B9
:1005CE0084E5F0701E630DFF85220A0522050CE5F9
:1005DE000C7002050BD3E52294C8748094804003FE
:1005EE00752200D3E50E94D2748094804003750E6C
:0805FE0000D0D0D0F0D0E032B3
:10064600751D00751E01751B00751C01E4F580F50E
:1006560090F50BF50CF514F515F516751740F51014
:100666007F01FE120606E4F511F512FFFE1206D80A
:0906760012052012079A0207A3E5
:08020B00AD1EAC1DAF1CAE1BC3
:10021300AB05AA048F828E83C3E5829401E58364D0
:100223008094805003900001D3E5829403E58364B6
:100233008094804003900003C3EB9401EA648094AC
:10024300805003E4FAFBD3EB9440EA64809480404B
:10025300047A007B40D3EB9400EA64809480400EE0
:10026300D3EB9408EA64809480500375A0FED3EB2B
:100273009408EA64809480400ED3EB9410EA64807F
:100283009480500375A0EFD3EB9410EA64809480BC
:10029300400ED3EB9418EA64809480500375A0FD5C
:1002A300D3EB9418EA64809480400ED3EB9420EA55
:1002B30064809480500375A0DFD3EB9420EA6480BC
:1002C3009480400ED3EB9428EA64809480500375A5
:1002D300A0FBD3EB9428EA64809480400ED3EB9484
:1002E30030EA64809480500375A0BFD3EB9430EA66
:1002F30064809480400ED3EB9438EA6480948050F9
:100303000375A0F7D3EB9438EA64809480400ED34E
:10031300EB9440EA64809480500375A07F7C007D59
:1003230010AF03AE02120412AA04AB05752101AE8D
:1003330083AF82EE704CEF24FE6019146028240210
:100343007040AF21EB14F8EF08800123D8FDF5804E
:10035300E4F59022E4F580AF21EB14F8EF08800177
:1003630023D8FDF59022AF21EB14FEF8EF088001AE
:1003730023D8FDF580AF21A806EF08800123D8FD1F
:02038300F590F3
:010385002255
:10049D000515E51570020514D39440E51464809498
:1004AD00804005E4F514F515C3E51464809480507F
:1004BD0006751400751540E517151770021516C34E
:1004CD00E514648094805006751400751540D3E5CD
:1004DD00159440E514648094804005E4F514F515F9
:1004ED00051EE51E7002051DD39440E51D64809424
:1004FD0080401F751D00751E01051CE51C70020551
:10050D001BD39403E51B648094804006751B007516
:03051D001C01229C
:10073900AF0CAE0B12000ED3E50C9408E50B6480E8
:0B07490094804006750B00750C012227
:0B07850012064612073912049D80F88E
:10000E00EE600302020AEFB40900400302020A90F6
:10001E000024F828287302003F0200A40200AC025C
:10002E0000C60200CE0200D70200E802010D020156
:10003E0058E4F524F525C3E5259515E5146480F8F7
:10004E00E524648098400302020AAD25AC24120216
:10005E000F7F0A12075E752600752740D3E5279598
:10006E0017E5166480F8E526648098401FE51C2489
:10007E0001FFE4351BFEAD27AC261202137F0A12D8
:10008E00075EE527152770D4152680D00525E525B2
:10009E0070A4052480A012020B7F01020207120237
:1000AE000B7F0A12075EC37440951EFDE4951DFC7E
:1000BE0012020F7F0A02020712067FE4FFFE801073
:1000CE0012067F7F017E00800712067F7F027E0070
:1000DE00120520851AA0AF15801A12067F7F017EA9
:1000EE0000120520851AA0AE14AF157C007D0512F6
:1000FE000412AF0512075EAF1A12077A8F1A22D3B7
:10010E00E5159428E514648094804005E4F514F513
:10011E0015D3E5179403E516648094804006751692
:10012E0000751701AD1EAC1DAF1CAE1B120759E5B5
:10013E001C2401FFE4351BFEC37440951EFDE4959F
:10014E001DFC120213AF15020207D3E515940AE542
:10015E0014648094804005E4F514F515D3E51794E6
:10016E0003E516648094804006751600751701D35A
:10017E00E51E9434E51D648094804005E4F51DF57C
:10018E001EAD1EAC1DAF1CAE1B120759E51C240183
:10019E00FFE4351BFEE51E240D120754E51C240159
:1001AE00FFE4351BFEE51E241B120754E51C24013B
:1001BE00FFE4351BFEE51E2421120754E51C240125
:1001CE00FFE4351BFEE51E240B120754E51C24012B
:1001DE00FFE4351BFEC37413951EFDE4951D120737
:1001EE0058E51C2401FFE4351BFEC37427951EFD44
:0C01FE00E4951DFC120213AF1512075E01
:01020A0022D1
:10039200020785E493A3F8E493A34003F68001F2F5
:1003A20008DFF48029E493A3F85407240CC8C3336C
:1003B200C4540F4420C8834004F456800146F6DF3B
:1003C200E4800B0102040810204080900790E47E34
:1003D200019360BCA3FF543F30E509541FFEE49330
:1003E200A360010ECF54C025E060A840B8E493A3F7
:1003F200FAE493A3F8E493A3C8C582C8CAC583CA22
:10040200F0A3C8C582C8CAC583CADFE9DEE780BED9
:01079900005F
:10041200C2D5EC30E709B2D5E4C39DFDE49CFCEE05
:1004220030E715B2D5E4C39FFFE49EFE120448C331
:10043200E49DFDE49CFC800312044830D507C3E42C
:060442009FFFE49EFE2274
:10044800BC000BBE0029EF8DF084FFADF022E4CC98
:10045800F875F008EF2FFFEE33FEEC33FCEE9DEC61
:10046800984005FCEE9DFE0FD5F0E9E4CEFD22EDA7
:10047800F8F5F0EE8420D21CFEADF075F008EF2FF1
:10048800FFED33FD4007985006D5F0F222C398FDE2
:050498000FD5F0EA227F
:00000001FF
