:0300000002016199
:0C016100787FE4F6D8FD75811D0201A82E
:09049300011800010B010119FE22
:08049D007F6C7E91DEFEDFFCA6
:0104A5002234
:02047800AD07CE
:0D047A00E4FCECC39D500612049D0C80F5BF
:010487002252
:0A048800A811EF08800123D8FDFF42
:010492002247
:10036C00C3EF9401EE6480948050047E007F01D32F
:10037C00EF9404EE6480948040047E007F04EE7061
:10038C001EEF24FE600E14600F1460102403700F17
:10039C007514EE227514DD227514BB2275147722A8
:1003F9000509E50970020508D39404E508648094A9
:10040900804006750800750901AF09AE0802036C42
:10032000C3EF9401EE6480948050047E007F01D37B
:10033000EF9404EE6480948040047E007F04EE70AD
:100340002AEF24FE60111460151460192403701B39
:10035000750D8875908822750D4475904422750D31
:0C0360002275902222750D11759011225B
:100419000516E51670020515D39404E51564809454
:10042900804006751500751601AF16AE150203203A
:1003D800EE701DEF14600E14601024027012758008
:1003E800FFE4F59022E4F58080037580FF7590FFA7
:0103F80022E2
:100459000510E5107002050FD39402E50F6480942E
:0F046900804005E4F50FF510AF10AE0F0203D879
:1002CE007D067C00C3EE648094805003E4FEFFD371
:1002DE00EF9DEC6480F8EE6480984004AE04AF05A8
:1002EE00EE702EEF14601514601624FE6016146066
:1002FE001514601024067019E4F5112275110122EF
:10030E007511FF22800475140E227F037E001203E6
:01031E0020BE
:01031F0022BB
:01000A0022D3
:07000300758C4B758AFE228B
:0904A600758901120003D28C22B9
:0504AF00D2AFD2A9222A
:03000B000203AC41
:1003AC00C0E0C0D0120003050CE50C641470186397
:1003BC000BFF85180A0518F50CD3E51894647480A6
:0C03CC0094804003751800D0D0D0E032BF
:10043900E4F580F590F50E7F01FE12036CE4F50FEB
:10044900F510FFFE1203D81202CE1204A60204AF61
:04000E008F828E83CC
:10001200AB05AA04C3EB9401EA648094805003E424
:10002200FAFBD3EB9440EA6480948040047A007B2C
:1000320040D3EB9400EA64809480400ED3EB9408A2
:10004200EA64809480500375A0FED3EB9408EA64BE
:10005200809480400ED3EB9410EA64809480500325
:1000620075A0EFD3EB9410EA64809480400ED3EB3A
:100072009418EA64809480500375A0FDD3EB941821
:10008200EA64809480400ED3EB9420EA64809480EA
:10009200500375A0DFD3EB9420EA64809480400E75
:1000A200D3EB9428EA64809480500375A0FBD3EBD1
:1000B2009428EA64809480400ED3EB9430EA648002
:1000C2009480500375A0BFD3EB9430EA648094808F
:1000D200400ED3EB9438EA64809480500375A0F705
:1000E200D3EB9438EA64809480400ED3EB9440EAD8
:1000F20064809480500375A07F7C007D10AF03AEB6
:10010200021201EDAA04AB05751701AE83AF82EEB0
:10011200704CEF24FE601914602824027040AF175F
:10012200EB14F8EF08800123D8FDF580E4F5902266
:10013200E4F580AF17EB14F8EF08800123D8FDF542
:100142009022AF17EB14FEF8EF08800123D8FDF5DB
:0E01520080AF17A806EF08800123D8FDF590B6
:01016000227C
:10027800751A00751B01751C00751D01120439E4FF
:10028800F590AD1BAC1AAF1DAE1C12000E7F01120B
:100298000478051BE51B7002051AD39440E51A641F
:1002A80080948040DA751A00751B01051DE51D70E4
:1002B80002051CD39403E51C6480948040C1751C1E
:0602C80000751D0180B964
:10016D00020278E493A3F8E493A34003F68001F22E
:10017D0008DFF48029E493A3F85407240CC8C33393
:10018D00C4540F4420C8834004F456800146F6DF62
:10019D00E4800B0102040810204080900493E47E5B
:1001AD00019360BCA3FF543F30E509541FFEE49357
:1001BD00A360010ECF54C025E060A840B8E493A31E
:1001CD00FAE493A3F8E493A3C8C582C8CAC583CA49
:1001DD00F0A3C8C582C8CAC583CADFE9DEE780BE01
:01049C00005F
:1001ED00C2D5EC30E709B2D5E4C39DFDE49CFCEE2D
:1001FD0030E715B2D5E4C39FFFE49EFE120223C380
:10020D00E49DFDE49CFC800312022330D507C3E47A
:06021D009FFFE49EFE229B
:10022300BC000BBE0029EF8DF084FFADF022E4CCBF
:10023300F875F008EF2FFFEE33FEEC33FCEE9DEC88
:10024300984005FCEE9DFE0FD5F0E9E4CEFD22EDCE
:10025300F8F5F0EE8420D21CFEADF075F008EF2F18
:10026300FFED33FD4007985006D5F0F222C398FD09
:050273000FD5F0EA22A6
:00000001FF
