:0300000002016199
:0C016100787FE4F6D8FD7581210201A82A
:0904A600011800010B010119FE0F
:0804B0007F6C7E91DEFEDFFC93
:0104B8002221
:09048200AF1DAE1C12000E7F013B
:02048B00AD07BB
:0D048D00E4FCECC39D50061204B00C80F599
:01049A00223F
:0A049B00A811EF08800123D8FDFF2F
:0104A5002234
:10037600C3EF9401EE6480948050047E007F01D325
:10038600EF9404EE6480948040047E007F04EE7057
:100396001EEF24FE600E14600F1460102403700F0D
:1003A6007514EE227514DD227514BB22751477229E
:100403000509E50970020508D39404E5086480949E
:10041300804006750800750901AF09AE080203762E
:10032A00C3EF9401EE6480948050047E007F01D371
:10033A00EF9404EE6480948040047E007F04EE70A3
:10034A002AEF24FE60111460151460192403701B2F
:10035A00750D8875908822750D4475904422750D27
:0C036A002275902222750D117590112251
:100423000516E51670020515D39404E5156480944A
:10043300804006751500751601AF16AE1502032A26
:1003E200EE701DEF14600E146010240270127580FE
:1003F200FFE4F59022E4F58080037580FF7590FF9D
:0104020022D7
:100463000510E5107002050FD39402E50F64809424
:0F047300804005E4F50FF510AF10AE0F0203E265
:1002D8007D067C00C3EE648094805003E4FEFFD367
:1002E800EF9DEC6480F8EE6480984004AE04AF059E
:1002F800EE702EEF14601514601624FE601614605C
:100308001514601024067019E4F5112275110122E4
:100318007511FF22800475140E227F037E001203DC
:010328002AAA
:0103290022B1
:01000A0022D3
:07000300758C4B758AFE228B
:0904B900758901120003D28C22A6
:0504C200D2AFD2A92217
:03000B000203B637
:1003B600C0E0C0D0120003050CE50C64147018638D
:1003C6000BFF85180A0518F50CD3E518946474809C
:0C03D60094804003751800D0D0D0E032B5
:10044300E4F580F590F50E7F01FE120376E4F50FD7
:10045300F510FFFE1203E21202D81204B90204C21D
:04000E008F828E83CC
:10001200AB05AA04C3EB9401EA648094805003E424
:10002200FAFBD3EB9440EA6480948040047A007B2C
:1000320040D3EB9400EA64809480400ED3EB9408A2
:10004200EA64809480500375A0FED3EB9408EA64BE
:10005200809480400ED3EB9410EA64809480500325
:1000620075A0EFD3EB9410EA64809480400ED3EB3A
:100072009418EA64809480500375A0FDD3EB941821
:10008200EA64809480400ED3EB9420EA64809480EA
:10009200500375A0DFD3EB9420EA64809480400E75
:1000A200D3EB9428EA64809480500375A0FBD3EBD1
:1000B2009428EA64809480400ED3EB9430EA648002
:1000C2009480500375A0BFD3EB9430EA648094808F
:1000D200400ED3EB9438EA64809480500375A0F705
:1000E200D3EB9438EA64809480400ED3EB9440EAD8
:1000F20064809480500375A07F7C007D10AF03AEB6
:10010200021201EDAA04AB05751701AE83AF82EEB0
:10011200704CEF24FE601914602824027040AF175F
:10012200EB14F8EF08800123D8FDF580E4F5902266
:10013200E4F580AF17EB14F8EF08800123D8FDF542
:100142009022AF17EB14FEF8EF08800123D8FDF5DB
:0E01520080AF17A806EF08800123D8FDF590B6
:01016000227C
:10027800751A00751B01751C00751D01751E00752A
:100288001F64120443E4F590AD1BAC1A120482C338
:100298007440951BFDE4951AFC120482051BE51BAE
:1002A8007002051AD39440E51A6480948040D6758C
:1002B8001A00751B01051DE51D7002051CD394036A
:1002C800E51C6480948040BD751C00751D0180B5D7
:10016D00020278E493A3F8E493A34003F68001F22E
:10017D0008DFF48029E493A3F85407240CC8C33393
:10018D00C4540F4420C8834004F456800146F6DF62
:10019D00E4800B01020408102040809004A6E47E48
:1001AD00019360BCA3FF543F30E509541FFEE49357
:1001BD00A360010ECF54C025E060A840B8E493A31E
:1001CD00FAE493A3F8E493A3C8C582C8CAC583CA49
:1001DD00F0A3C8C582C8CAC583CADFE9DEE780BE01
:0104AF00004C
:1001ED00C2D5EC30E709B2D5E4C39DFDE49CFCEE2D
:1001FD0030E715B2D5E4C39FFFE49EFE120223C380
:10020D00E49DFDE49CFC800312022330D507C3E47A
:06021D009FFFE49EFE229B
:10022300BC000BBE0029EF8DF084FFADF022E4CCBF
:10023300F875F008EF2FFFEE33FEEC33FCEE9DEC88
:10024300984005FCEE9DFE0FD5F0E9E4CEFD22EDCE
:10025300F8F5F0EE8420D21CFEADF075F008EF2F18
:10026300FFED33FD4007985006D5F0F222C398FD09
:050273000FD5F0EA22A6
:00000001FF
