:03000000020510E6
:0C051000787FE4F6D8FD75812C020557B9
:1007A80001020304080C100F0E0D090501111213A4
:1007B80014181C201F1E1D19151121222324282C52
:1007C800302F2E2D29252131323334383C403F3EFD
:0407D8003D39353141
:1007DC0001170D41000200410001344100000101EC
:1007EC001100012500012600012800010800011854
:1007FC00FF011901012400012300010F010127FE53
:0B08E3000000007F0B7EBEDEFEDFFC8D
:0108EE0022E7
:09089000AD20AF1F12032EAF1AB8
:02089900AD07A9
:0D089B00E4FCECC39D50061208E30C80F550
:0108A800222D
:02070100A90746
:10070300E4FFEFC3995030E4FEEED3947874809401
:10071300804021E4FDEDC39478748094805012E40A
:10072300FCECC394787480948050030C80F30D80A8
:07073300E40E80D50F80CB1E
:01073A00229C
:0A08EF00A816EF08800123D8FDFFD2
:0108F90022DC
:10073B00EFC394017480948050027F01EFD3940433
:10074B007480948040027F04EF24FE600E14600FCF
:10075B001460102403700F751EEE22751EDD2275BA
:07076B001EBB22751E772260
:1008A900050AD3E50A9404748094804003750A010B
:0508B900AF0A02073B3D
:10064100EFC394017480948050027F01EFD394042E
:100651007480948040027F04EF24FE6011146015C1
:100661001460192403701B75138875908822751303
:1006710044759044227513227590222275131175C9
:03068100901122B3
:1008BE000521D3E5219404748094804003752101B1
:0508CE00AF210206410C
:10087200EF14600E146010240270127580FFE4F50C
:0E0882009022E4F58080037580FF7590FF22C0
:100834000515C3748094805003751502D3E515948F
:0F08440002748094804003E4F515AF150208722A
:100684007E06C3748094805002E4FFEFD39E400240
:10069400AF06EF14601514601624FE60161460157E
:1006A40014601024067017E4F516227516012275DD
:0E06B40016FF228004751E0E227F03120641DF
:0106C2002215
:01000A0022D3
:07000300758C4B758AFE228B
:0908FA00758901120003D28C2261
:05090300D2AFD2A922D1
:03000B000205F1FA
:1005F100C0E0C0F0C0D01200030510E51075F01482
:1006010084E5F07018630FFF85230B0523050ED3D6
:10061100E52394C8748094804003752300D3E510CA
:1006210094D2748094804003751000D3E523943CE8
:10063100748094804003752300D0D0D0F0D0E03294
:1006C300752001751F01E4F580F590F50EF51CF515
:1006D3001A751B40F5147F0112073B75B001D2B4A4
:1006E300D2B5D2B6D2B7C2B0E4F515751201FF1276
:0E06F3000872120684E4F5151208FA020903D3
:03032B00FDAF1F04
:10032E00EFC394017480948050027F01EFD3940345
:10033E007480948040027F03EDC394017480948096
:10034E005002E4FDEDD394407480948040027D40D1
:10035E00EDFB7A00D3940074809480400DD3EB941F
:10036E000874809480500375A0FED3EB9408EA6461
:10037E00809480400ED3EB9410EA648094805003F6
:10038E0075A0EFD3EB9410EA64809480400ED3EB0B
:10039E009418EA64809480500375A0FDD3EB9418F2
:1003AE00EA64809480400ED3EB9420EA64809480BB
:1003BE00500375A0DFD3EB9420EA64809480400E46
:1003CE00D3EB9428EA64809480500375A0FBD3EBA2
:1003DE009428EA64809480400ED3EB9430EA6480D3
:1003EE009480500375A0BFD3EB9430EA6480948060
:1003FE00400ED3EB9438EA64809480500375A0F7D6
:10040E00D3EB9438EA64809480400ED3EB9440EAA8
:10041E0064809480500375A07F53050F752201EF01
:10042E0024FE601914602824027040AF22ED14F8E7
:10043E00EF08800123D8FDF580E4F59022E4F580E5
:10044E00AF22ED14F8EF08800123D8FDF59022AF0E
:10045E0022ED14FEF8EF08800123D8FDF580AF22BF
:0B046E00A806EF08800123D8FDF590E0
:010479002260
:10059C00051AD3E51A9440748094804003E4F51A4C
:1005AC00C3748094805003751A40151BC3748094D7
:1005BC00805003751A40D3E51A944074809480409F
:1005CC0003E4F51A0520D3E5209440748094804010
:1005DC0013752001051FD3E51F940374809480408C
:0505EC0003751F012250
:1008D300AF0E120015E50ED395174003E4F50E2273
:10080D00AB07751A01C3E51A9405748094805016D0
:10081D00AF03120872AF1A12073B851EA07F1E127E
:07082D000701051A80DF221C
:04090800E4F5A02250
:04090C0075A0FF22B1
:10077200C3748094805002E4FFEFD3946474809435
:100782008040027F64E4FEEEC394647480948050DF
:1007920014EE9F50051209088008EED39F40031201
:0507A200090C0E80E2CD
:0107A700222F
:10047A0020B4247F0112089920B40EE51264017099
:10048A0003850E1C12000E80EFC2B0151CC37480C7
:10049A009480500385171C20B5247F0112089920E7
:1004AA00B50EE51264017003850E1C12000E80EF72
:1004BA00C2B0051CE51CD395174003E4F51C20B611
:1004CA001D7F0112089920B613E5127003851C0ED0
:1004DA007512017F0A120015D2B080EAC2B020B7A5
:1004EA00227F0112089920B715E51264017003856D
:1004FA000E1CE4F512D2B07F0A12001580E8C2B0D1
:06050A00E4F51CC2B02262
:100853001206C3E512640170051208D38009E5127C
:0F0863007005AF1C12001512047A12059C80E478
:07000E00E4F512D2B0AF1CB3
:10001500EFB40E00400302032A900025F828287348
:1000250002004F0200F20200F7020110020117025E
:10003500011E02012D02014B02017C0201F80202A0
:100045000D020218020279020304E4F580F590F529
:10005500A0AF15120872E50D14602314603B1460FF
:100065005314606E2404600302032AE5108520F012
:1000750084E5F07002F50CE4F509750D0122E51033
:1000850054017002050CC3E50C946474809480409F
:100095003C750C64750D028034E510540170020541
:1000A50009C3E5099464748094804006750C6475F1
:1000B5000D038019E51054017002150CD3E50C945D
:1000C50000748094805006E4F50C750D04AF0C02A5
:1000D5000772E510540170020509C3E509946474BB
:1000E5008094804005E4F50CF50D020834AD20023E
:1000F5000203AD20AF1F12032E7F0A120899C374A5
:1001050040952012032B7F0A020301120834E4FFF5
:10011500800C1208347F0180051208347F02120614
:1001250084851EA0AF1A80131208347F011206843D
:10013500851EA0E51A75F00584AFF0120899AF1E6B
:100145001208EF8F1E22D3E51A94287480948040FC
:1001550003E4F51AD3E51B9403748094804003757A
:100165001B01120890E51F04FFC374409520FD1282
:10017500032EAF1A020301D3E51A940A7480948002
:100185004003E4F51AD3E51B94037480948040037F
:10019500751B01D3E5209434748094804003E4F505
:1001A50020120890E51F04FFE520240DFD12089498
:1001B500E51F04FFE520241BFD120894E51F04FF3D
:1001C500E5202421FD120894E51F04FFE520240BFA
:1001D500FD120894E51F04FFC374139520FD120852
:1001E50094E51F04FFC374279520FD12032EAF1A53
:1001F500020301E51A851BF0A4F529543FFDAF1F45
:1002050012032E7F01020301E52375F00384AFF08D
:1002150002080D120834E5158520F0A4851FF0A409
:10022500F52912032B7F07120899E529540FFDAF15
:100235001F12032E7F07120899E51F04FFE5297594
:10024500F01884ADF012032E7F07120899E51F24DC
:1002550002FFE529541FFD12032E7F07120899E5B9
:100265001F2403FFE52975F03084ADF012032E7FBE
:1002750007020301C3E5259401748094805003753A
:100285002501900000E0FF900002E02FF0E0FF7EE6
:1002950000D3942A7480948040160525D3E52594CF
:1002A5000374809480400375250190000074FFF06D
:1002B500C3EF9403EE6480948050069000007401AF
:1002C500F0900002E09007A893FDAF2512032EAF32
:1002D5001F120899E52504FF900002E09007AC93F2
:1002E500FD12032EAF1F120899E5252402FF900089
:1002F50002E09007B093FD12032EAF1F020899AFDD
:10030500A0EF70047FFF80027F008FA0E52075F0CD
:100315001E84AFF0120899E52064017008120834B4
:05032500AF1512087283
:01032A0022B0
:10051C00020853E493A3F8E493A34003F68001F29A
:10052C0008DFF48029E493A3F85407240CC8C333E0
:10053C00C4540F4420C8834004F456800146F6DFAF
:10054C00E4800B01020408102040809007DCE47E5C
:10055C00019360BCA3FF543F30E509541FFEE493A4
:10056C00A360010ECF54C025E060A840B8E493A36B
:10057C00FAE493A3F8E493A3C8C582C8CAC583CA96
:10058C00F0A3C8C582C8CAC583CADFE9DEE780BE4E
:01080C0000EB
:00000001FF
