:03000000020326D2
:0C032600787FE4F6D8FD75812B02036D92
:09074100012200010D010123FE5B
:0B071F000000007F0B7EBEDEFEDFFC52
:01072A0022AC
:0A070500FDE4351DFC1201B3AF1531
:02070F00AD0734
:0D071100E4FCECC39D500612071F0C80F5A0
:01071E0022B8
:0205E600A90763
:1005E800E4FFEFC3995030E4FEEED394787480941E
:1005F800804021E4FDEDC39478748094805012E427
:10060800FCECC394787480948050030C80F30D80C4
:07061800E40E80D50F80CB3A
:01061F0022B8
:0A072B00A813EF08800123D8FDFF9A
:0107350022A1
:1005A600C3EF9401EE6480948050047E007F01D3F3
:1005B600EF9404EE6480948040047E007F04EE7025
:1005C6001EEF24FE600E14600F1460102403700FDB
:1005D600751AEE22751ADD22751ABB22751A772254
:1006AA000509E50970020508D39404E508648094F5
:1006BA00804006750800750901AF09AE080205A653
:10051200C3EF9401EE6480948050047E007F01D387
:10052200EF9404EE6480948040047E007F04EE70B9
:100532002AEF24FE60111460151460192403701B45
:10054200750F8875908822750F4475904422750F37
:0C0552002275902222750F117590112265
:1006CA000520E5207002051FD39404E51F64809479
:1006DA00804006751F00752001AF20AE1F0205126B
:10068900EE701DEF14600E14601024027012758054
:10069900FFE4F59022E4F58080037580FF7590FFF3
:0106A900222E
:100659000512E51270020511C3E5116480948050FA
:1006690006751100751202D3E5129402E511648032
:1006790094804005E4F511F512AF12AE1102068916
:1004C0007D067C00C3EE648094805003E4FEFFD37D
:1004D000EF9DEC6480F8EE6480984004AE04AF05B4
:1004E000EE702EEF14601514601624FE6016146072
:1004F0001514601024067019E4F5132275130122F7
:100500007513FF228004751A0E227F037E001205E8
:0105100012D8
:0105110022C7
:01000A0022D3
:07000300758C4B758AFE228B
:09074B00758901120003D28C2211
:05075400D2AFD2A92282
:03000B0002055E8D
:10055E00C0E0C0F0C0D0120003050EE50E75F01419
:10056E0084E5F0701E630DFF85220A0522050CE559
:10057E000C7002050BD3E52294C87480948040035E
:10058E00752200D3E50E94D2748094804003750ECC
:08059E0000D0D0D0F0D0E03213
:10062000751D00751E01751B00751C01E4F580F534
:1006300090F50BF50CF514F515F516751740F5103A
:100640007F01FE1205A6E4F511F512FFFE120689E0
:090650001204C012074B0207540A
:0801AB00AD1EAC1DAF1CAE1B24
:1001B300AB05AA048F828E83C3E5829401E5836431
:1001C3008094805003900001D3E5829403E5836417
:1001D3008094804003900003C3EB9401EA6480940D
:1001E300805003E4FAFBD3EB9440EA6480948040AC
:1001F300047A007B40D3EB9400EA64809480400E41
:10020300D3EB9408EA64809480500375A0FED3EB8B
:100213009408EA64809480400ED3EB9410EA6480DF
:100223009480500375A0EFD3EB9410EA648094801C
:10023300400ED3EB9418EA64809480500375A0FDBC
:10024300D3EB9418EA64809480400ED3EB9420EAB5
:1002530064809480500375A0DFD3EB9420EA64801C
:100263009480400ED3EB9428EA6480948050037505
:10027300A0FBD3EB9428EA64809480400ED3EB94E4
:1002830030EA64809480500375A0BFD3EB9430EAC6
:1002930064809480400ED3EB9438EA648094805059
:1002A3000375A0F7D3EB9438EA64809480400ED3AF
:1002B300EB9440EA64809480500375A07F7C007DBA
:1002C30010AF03AE021203B2AA04AB05752101AE4F
:1002D30083AF82EE704CEF24FE6019146028240271
:1002E3007040AF21EB14F8EF08800123D8FDF580AF
:1002F300E4F59022E4F580AF21EB14F8EF088001D8
:1003030023D8FDF59022AF21EB14FEF8EF0880010E
:1003130023D8FDF580AF21A806EF08800123D8FD7F
:02032300F59053
:0103250022B5
:10043D000515E51570020514D39440E514648094F8
:10044D00804005E4F514F515C3E5146480948050DF
:10045D0006751400751540E517151770021516C3AE
:10046D00E514648094805006751400751540D3E52D
:10047D00159440E514648094804005E4F514F51559
:10048D00051EE51E7002051DD39440E51D64809484
:10049D0080401F751D00751E01051CE51C700205B1
:1004AD001BD39403E51B648094804006751B007577
:0304BD001C0122FD
:1006EA00AF0CAE0B12000ED3E50C9408E50B648038
:0B06FA0094804006750B00750C012277
:0B0736001206201206EA12043D80F8B3
:10000E00EE60030201AAEF14B4080040030201AA35
:10001E0090002C75F003A4C58325F0C583730200F0
:10002E004402004C02006602006E02007702008855
:10003E000200AD0200F81201AB7F010201A712010E
:10004E00AB7F0A12070FC37440951EFDE4951DFC8D
:10005E001201AF7F0A0201A7120659E4FFFE8010BB
:10006E001206597F017E0080071206597F027E001C
:10007E001204C0851AA0AF15801A1206597F017E90
:10008E00001204C0851AA0AE14AF157C007D0512B7
:10009E0003B2AF0512070FAF1A12072B8F1A22D316
:1000AE00E5159428E514648094804005E4F514F574
:1000BE0015D3E5179403E5166480948040067516F3
:1000CE0000751701AD1EAC1DAF1CAE1B12070AE565
:1000DE001C2401FFE4351BFEC37440951EFDE49500
:1000EE001DFC1201B3AF150201A7D3E515940AE565
:1000FE0014648094804005E4F514F515D3E5179447
:10010E0003E516648094804006751600751701D3BA
:10011E00E51E9434E51D648094804005E4F51DF5DC
:10012E001EAD1EAC1DAF1CAE1B12070AE51C240132
:10013E00FFE4351BFEE51E240D120705E51C240108
:10014E00FFE4351BFEE51E241B120705E51C2401EA
:10015E00FFE4351BFEE51E2421120705E51C2401D4
:10016E00FFE4351BFEE51E240B120705E51C2401DA
:10017E00FFE4351BFEC37413951EFDE4951D120797
:10018E0009E51C2401FFE4351BFEC37427951EFDF3
:0C019E00E4951DFC1201B3AF1512070F11
:0101AA002232
:10033200020736E493A3F8E493A34003F68001F2A4
:1003420008DFF48029E493A3F85407240CC8C333CC
:10035200C4540F4420C8834004F456800146F6DF9B
:10036200E4800B0102040810204080900741E47EE3
:10037200019360BCA3FF543F30E509541FFEE49390
:10038200A360010ECF54C025E060A840B8E493A357
:10039200FAE493A3F8E493A3C8C582C8CAC583CA82
:1003A200F0A3C8C582C8CAC583CADFE9DEE780BE3A
:01074A0000AE
:1003B200C2D5EC30E709B2D5E4C39DFDE49CFCEE66
:1003C20030E715B2D5E4C39FFFE49EFE1203E8C3F3
:1003D200E49DFDE49CFC80031203E830D507C3E4EE
:0603E2009FFFE49EFE22D5
:1003E800BC000BBE0029EF8DF084FFADF022E4CCF9
:1003F800F875F008EF2FFFEE33FEEC33FCEE9DECC2
:10040800984005FCEE9DFE0FD5F0E9E4CEFD22ED07
:10041800F8F5F0EE8420D21CFEADF075F008EF2F51
:10042800FFED33FD4007985006D5F0F222C398FD42
:050438000FD5F0EA22DF
:00000001FF
