:0300000002069D58
:0C069D00787FE4F6D8FD75813C0206E48D
:1007AC0000010002000300040008000C0010000F00
:1007BC00000E000D000900050001001100120013CD
:1007CC0000140018001C0020001F001E001D001942
:1007DC000015001100210022002300240028002C09
:1007EC000030002F002E002D0029002500210031A3
:1007FC000032003300340038003C0040003F003E23
:08080C00003D00390035003108
:1009C1000217000C42000400004200020034420001
:1009D100000001022E00000230000002330000027C
:1009E100080000011901011A01022C0000012B006D
:0609F100010F010132FEBE
:0B0AF5000000007F0B7EBEDEFEDFFC79
:010B000022D2
:0A0ADB00FDE43526FC1203A2AF1C57
:020AE500AD075B
:0D0AE700E4FCECC39D5006120AF50C80F5EE
:010AF40022DF
:02098700A907BE
:10098900E4FFEFC3995030E4FEEED3947874809479
:10099900804021E4FDEDC39478748094805012E482
:1009A900FCECC394787480948050030C80F30D8020
:0709B900E40E80D50F80CB96
:0109C0002214
:0A0B0100A816EF08800123D8FDFFBD
:010B0B0022C7
:10090800C3EF9401EE6480948050047E007F01D38D
:10091800EF9404EE6480948040047E007F04EE70BF
:100928001EEF24FE600E14600F1460102403700F75
:100938007523EE227523DD227523BB2275237722CA
:100A7D00050BE50B7002050AD39404E50A64809416
:100A8D00804006750A00750B01AF0BAE0A0209080E
:1008BC00C3EF9401EE6480948050047E007F01D3DA
:1008CC00EF9404EE6480948040047E007F04EE700C
:1008DC002AEF24FE60111460151460192403701B98
:1008EC007512887590882275124475904422751281
:0C08FC00227590222275121175901122B5
:100A9D000529E52970020528D39404E5286480947E
:100AAD00804006752800752901AF29AE280208BCC3
:100A5C00EE701DEF14600E1460102402701275807D
:100A6C00FFE4F59022E4F58080037580FF7590FF1C
:010A7C002257
:100A2C000515E51570020514C3E514648094805017
:100A3C0006751400751502D3E5159402E51464804F
:100A4C0094804005E4F514F515AF15AE14020A5C5C
:10086A007D067C00C3EE648094805003E4FEFFD3CF
:10087A00EF9DEC6480F8EE6480984004AE04AF0506
:10088A00EE702EEF14601514601624FE60161460C4
:10089A001514601024067019E4F516227516012243
:1008AA007516FF22800475230E227F037E0012082C
:0108BA00BC81
:0108BB00221A
:01000A0022D3
:07000300758C4B758AFE228B
:090B0C00758901120003D28C224C
:050B1500D2AFD2A922BD
:03000B00020814D4
:10081400C0E0C0F0C0D01200030510E51075F0145C
:1008240084E5F0701E630FFF852B0C052B050EE588
:100834000E7002050DD3E52B94C874809480400398
:10084400752B00D3E51094D2748094804003751006
:1008540000D3E52B943C748094804003752B00D026
:06086400D0D0F0D0E0321C
:10094800752600752701752400752501E4F580F5E5
:100958009075B001751101F50DF50EF51BF51CF537
:100968001D751E40F5137F01FE120908E4F514F504
:0F09780015FFFE120A5C12086A120B0C020B1517
:04039E00AF25AE24B5
:1003A200AB05AA048F828E83C3E5829401E5836440
:1003B2008094805003900001D3E5829403E5836426
:1003C2008094804003900003C3EB9401EA6480941C
:1003D200805003E4FAFBD3EB9440EA6480948040BB
:1003E200047A007B40D3EB9400EA64809480400E50
:1003F200D3EB9408EA64809480500375A0FED3EB9B
:100402009408EA64809480400ED3EB9410EA6480EE
:100412009480500375A0EFD3EB9410EA648094802B
:10042200400ED3EB9418EA64809480500375A0FDCB
:10043200D3EB9418EA64809480400ED3EB9420EAC4
:1004420064809480500375A0DFD3EB9420EA64802B
:100452009480400ED3EB9428EA6480948050037514
:10046200A0FBD3EB9428EA64809480400ED3EB94F3
:1004720030EA64809480500375A0BFD3EB9430EAD5
:1004820064809480400ED3EB9438EA648094805068
:100492000375A0F7D3EB9438EA64809480400ED3BE
:1004A200EB9440EA64809480500375A07F7C007DC9
:1004B20010AF03AE02120612AA04AB05752A01AEF2
:1004C20083AF82EE704CEF24FE6019146028240280
:1004D2007040AF2AEB14F8EF08800123D8FDF580B5
:1004E200E4F59022E4F580AF2AEB14F8EF088001DE
:1004F20023D8FDF59022AF2AEB14FEF8EF08800115
:1005020023D8FDF580AF2AA806EF08800123D8FD85
:02051200F59062
:0105140022C4
:10072900051CE51C7002051BD39440E51B648094ED
:10073900804005E4F51BF51CC3E51B6480948050DB
:1007490006751B00751C40E51E151E7002151DC39C
:10075900E51B648094805006751B00751C40D3E529
:100769001C9440E51B648094804005E4F51BF51C4E
:100779000527E52770020526D39440E52664809471
:1007890080401F7526007527010525E5257002059E
:1007990024D39403E524648094804006752400756D
:0307A90025012205
:100ABD00AF0EAE0D120017D3E50E9518E517648035
:0E0ACD00F8E50D6480984005E4F50DF50E2265
:1009F800AB07AA06751B00751C01AF03AE02120AED
:100A08005CAF1CAE1B1209088523A07F1E12098744
:100A1800051CE51C7002051BC39405E51B64809446
:040A28008040D72211
:10051500120948E4F51FF520D2B4D2B5D2B6D2B748
:10052500C2B0E51164017005120ABD8007E51170BE
:100535000312001312072920B4327F01120AE520A5
:10054500B411E51164017006850D1F850E2012009A
:100555000E80ECC2B0E52015207002151FC3E51F03
:1005650064809480500685171F85182020B5377F35
:1005750001120AE520B511E51164017006850D1F0C
:10058500850E2012000E80ECC2B00520E520700219
:10059500051FD39518E5176480F8E51F648098401A
:1005A50005E4F51FF52020B6227F01120AE520B6E5
:1005B50018E5117006851F0D85200E7511017F0A3E
:1005C5007E00120017D2B080E5C2B020B7287F01A7
:1005D500120AE520B519E51164017006850D1F8520
:1005E5000E20E4F511D2B07F0AFE12001780E4C296
:0B05F500B0E4F51FF520C2B00205279E
:09000E00E4F511D2B0AF20AE1FE1
:10001700EE600302039DEFB40D00400302039D90C1
:10002700002DF828287302005402006302006A02B8
:1000370000880200900200990200AA0200CF020184
:100047001A0201CC0201EA0201F702029BAF90EF0C
:1000570070047FFF80027F008F908020AD27AC2641
:100067000201E2AD27AC2612039E7F0A120AE5C3FE
:1000770074409527FDE49526FC12039E7F0A020330
:100087009A120A2CE4FFFE8010120A2C7F017E00D0
:100097008007120A2C7F027E0012086A8523A0AF10
:1000A7001C801A120A2C7F017E0012086A8523A081
:1000B700AE1BAF1C7C007D05120612AF05120AE5C8
:1000C700AF23120B018F2322D3E51C9428E51B6471
:1000D7008094804005E4F51BF51CD3E51E9403E5E9
:1000E7001D648094804006751D00751E01AD27AC08
:1000F70026AF25AE24120AE0E5252401FFE43524C6
:10010700FEC374409527FDE49526FC1203A2AF1C9D
:1001170002039AD3E51C940AE51B6480948040058A
:10012700E4F51BF51CD3E51E9403E51D648094805C
:100137004006751D00751E01D3E5279434E5266436
:100147008094804005E4F526F527AD27AC26AF253A
:10015700AE24120AE0E5252401FFE43524FEE52755
:10016700240D120ADBE5252401FFE43524FEE527EB
:10017700241B120ADBE5252401FFE43524FEE527CD
:100187002421120ADBE5252401FFE43524FEE527B7
:10019700240B120ADBE5252401FFE43524FEC37492
:1001A700139527FDE49526120ADFE5252401FFE4D0
:1001B7003524FEC374279527FDE49526FC1203A278
:1001C700AF1C02039AAC1DAD1EAE1BAF1C1206007E
:1001D7008E358F367C007D4012061212039E7F01FA
:1001E70002039AE52B75F00384AFF07E000209F84D
:1001F700120A2CAC26AD27AE14AF15120600AC249C
:10020700AD251206008E358F36AD36AC3512039EFE
:100217007F07120AE5AE35AF367C007D1012061255
:1002270012039E7F07120AE5E5252401FFE4352422
:10023700FEC006C007AE35AF367C007D1812061229
:10024700D007D0061203A27F07120AE5E52524028C
:10025700FFE43524FEC006C007AE35AF367C007D0F
:1002670020120612D007D0061203A27F07120AE552
:10027700E5252403FFE43524FEC006C007AE35AFED
:10028700367C007D30120612D007D0061203A27FFB
:100297000702039AC3E52F9401E52E6480948050EA
:1002A70006752E00752F01900000E0FEA3E0FF9079
:1002B7000005E02FF0900004E03EF0E0FEA3E0FF31
:1002C700D3942AEE648094804021052FE52F700295
:1002D700052ED39403E52E648094804006752E0086
:1002E700752F0174FF900000F0A3F0C3EF9403EEA5
:1002F700648094805008900000E4F0A304F090001C
:1003070005E025E0FF900004E033FE74AC2FF58292
:1003170074073EF583E493FC740193FDAF2FAE2E73
:100327001203A2AF25120AE5E52F2401FFE4352EBB
:10033700FEC006C007900005E025E0FF900004E03E
:1003470033FE74B42FF58274073EF583E493FC748F
:100357000193FDD007D0061203A2AF25120AE5E5E7
:100367002F2402FFE4352EFEC006C007900005E0EB
:1003770025E0FF900004E033FE74BC2FF58274077C
:100387003EF583E493FC740193FDD007D006120376
:06039700A2AF25120AE5E9
:01039D00223D
:1006A900020515E493A3F8E493A34003F68001F24D
:1006B90008DFF48029E493A3F85407240CC8C33352
:1006C900C4540F4420C8834004F456800146F6DF21
:1006D900E4800B01020408102040809009C1E47EE7
:1006E900019360BCA3FF543F30E509541FFEE49316
:1006F900A360010ECF54C025E060A840B8E493A3DD
:10070900FAE493A3F8E493A3C8C582C8CAC583CA07
:10071900F0A3C8C582C8CAC583CADFE9DEE780BEBF
:0109F70000FF
:10060000EF8DF0A4A8F0CF8CF0A428CE8DF0A42E0E
:02061000FE22C8
:10061200C2D5EC30E709B2D5E4C39DFDE49CFCEE03
:1006220030E715B2D5E4C39FFFE49EFE120648C32D
:10063200E49DFDE49CFC800312064830D507C3E428
:060642009FFFE49EFE2272
:10064800BC000BBE0029EF8DF084FFADF022E4CC96
:10065800F875F008EF2FFFEE33FEEC33FCEE9DEC5F
:10066800984005FCEE9DFE0FD5F0E9E4CEFD22EDA5
:10067800F8F5F0EE8420D21CFEADF075F008EF2FEF
:10068800FFED33FD4007985006D5F0F222C398FDE0
:050698000FD5F0EA227D
:00000001FF
